:100000000C945D000C9485000C9485000C94850084
:100010000C9485000C9485000C9485000C9485004C
:100020000C9485000C9485000C9485000C941E049F
:100030000C9485000C9485000C9485000C9485002C
:100040000C947C030C9485000C94EC030C94C60374
:100050000C9485000C9485000C9485000C9485000C
:100060000C9485000C9485000000000024002700FB
:100070002A0000000000250028002B0004040404CE
:100080000404040402020202020203030303030342
:10009000010204081020408001020408102001021F
:1000A00004081020000000080002010000030407FB
:1000B0000000000000000000F50411241FBECFEF77
:1000C000D8E0DEBFCDBF11E0A0E0B1E0EAEBFCE09C
:1000D00002C005900D92AC32B107D9F722E0ACE234
:1000E000B1E001C01D92A730B207E1F710E0CDE505
:1000F000D0E004C02197FE010E945506CC35D107FF
:10010000C9F70E9435050C945B060C94000090E042
:10011000FC01EC55FF4F2491FC01E057FF4F349157
:10012000FC01E458FF4FE491EE23C9F0222339F09B
:10013000233001F1A8F4213019F1223029F1F0E047
:10014000EE0FFF1FEE58FF4FA591B4918FB7F894B3
:10015000EC91611126C030953E233C938FBF0895EA
:100160002730A9F02830C9F0243049F78091800069
:100170008F7D03C0809180008F7780938000DFCFD8
:1001800084B58F7784BDDBCF84B58F7DFBCF809125
:10019000B0008F778093B000D2CF8091B0008F7D78
:1001A000F9CF3E2BDACF3FB7F89480915701909169
:1001B0005801A0915901B0915A0126B5A89B05C0DC
:1001C0002F3F19F00196A11DB11D3FBFBA2FA92FD6
:1001D000982F8827BC01CD01620F711D811D911DD3
:1001E00042E0660F771F881F991F4A95D1F708953F
:1001F000AF92BF92CF92DF92EF92FF920F931F9335
:10020000CF93DF936C017B018B01040F151FEB0172
:100210005E01AE18BF08C017D10759F06991D60129
:10022000ED91FC910190F081E02DC6010995892B9B
:1002300079F7C501DF91CF911F910F91FF90EF905A
:10024000DF90CF90BF90AF900895FC01538D448D07
:10025000252F30E0842F90E0821B930B541710F071
:10026000CF96089501970895FC01918D828D98177E
:1002700061F0A28DAE0FBF2FB11D5D968C91928D56
:100280009F5F9F73928F90E008958FEF9FEF089587
:10029000FC01918D828D981731F0828DE80FF11D50
:1002A000858D90E008958FEF9FEF0895FC01918D6B
:1002B000228D892F90E0805C9F4F821B91098F7364
:1002C000992708958BE591E00E94560121E0892B42
:1002D00009F420E0822F089580E090E0892B29F036
:1002E0000E94620181110C9400000895FC01A48D0C
:1002F000A80FB92FB11DA35ABF4F2C91848D90E048
:1003000001968F739927848FA689B7892C93A0892A
:10031000B1898C91837080648C93938D848D9813B4
:1003200006C00288F389E02D80818F7D8083089547
:10033000EF92FF920F931F93CF93DF93EC0181E035
:10034000888F9B8D8C8D98131AC0E889F9898081DC
:1003500085FF15C09FB7F894EE89FF896083E8890F
:10036000F98980818370806480839FBF81E090E001
:10037000DF91CF911F910F91FF90EF900895F62E8E
:100380000B8D10E00F5F1F4F0F731127E02E8C8D28
:100390008E110CC00FB607FCFACFE889F98980816D
:1003A00085FFF5CFCE010E947601F1CFEB8DEC0FEA
:1003B000FD2FF11DE35AFF4FF0829FB7F8940B8F8A
:1003C000EA89FB8980818062CFCFCF93DF93EC01F4
:1003D000888D8823B9F0AA89BB89E889F9898C912D
:1003E00085FD03C0808186FD0DC00FB607FCF7CFE9
:1003F0008C9185FFF2CF808185FFEDCFCE010E94E9
:100400007601E9CFDF91CF9108958F929F92AF92BD
:10041000BF92FF920F931F93CF93DF93FC01F08065
:100420008BE08F1508F44AC0828108E512E0081BB2
:10043000110987FD1395000F111F000F111F8181F6
:10044000C8E8D0E0C81BD10987FDD395CC0FDD1FCC
:10045000CC0FDD1F4E010D2E000CAA08BB08980121
:10046000012E000C440B550B281939094A095B0968
:10047000DB010E94100624EB30E040E050E00E94D7
:10048000E605820E931EA41EB51E8C169D062CF04A
:10049000E801801691060CF4E4012297CC0FDD1FD1
:1004A0002FB7F8948F2D90E0FC01EE0FFF1FE80F9F
:1004B000F91FE25DFE4FD283C1832FBFDF91CF9141
:1004C0001F910F91FF90BF90AF909F908F900895D4
:1004D000CF93DF93DC018C918C3008F06DC0CB01A1
:1004E000FB01E057FF4F249184589F4FFC018491FA
:1004F000882399F090E0880F991FFC01E859FF4F7D
:10050000C591D491FC01EE58FF4F859194918FB71E
:10051000F894E881E22BE8838FBF8C91282F30E09C
:10052000F901EE0FFF1FE20FF31FE25DFE4F962F62
:100530009F736081607C692B608311961C92119778
:1005400012961C9212972CE0622F0E944906829FFD
:10055000B001112430E020E0AB01420F531FFA013B
:10056000EE0FFF1FE40FF51FE25DFE4F908196FD39
:1005700016C02F5F3F4F2C30310571F781110FC02E
:100580001092800082E0809381001092850010928A
:100590008400B19A80916F00826080936F00EC912B
:1005A0008E2F90E0FC01EE0FFF1FE80FF91FE25DB8
:1005B000FE4F8081806480838C91DF91CF9108957C
:1005C000FC0101900020E9F73197AF01481B590B5E
:1005D000BC018BE591E00C94F8008F929F92AF9252
:1005E000BF92CF92DF92EF92FF920F931F93CF9320
:1005F000DF93CDB7DEB7A1970FB6F894DEBF0FBE7D
:10060000CDBF8C01BC0184E092E00E940502B801DC
:1006100081E092E00E940502B8018EEF91E00E9415
:100620000502B8018BEF91E00E940502B80188EF46
:1006300091E00E94050282E191E00E94E0029801AF
:10064000110F440B550B19A28E010F5D1F4F9AE03D
:10065000C92ED12CE12CF12CCA01B901A7019601B8
:100660000E941806605DF80162938F012115310523
:100670004105510589F7309719F0CF010E94E0023A
:100680008EE191E00E94E0020E94D3004B015C01E8
:1006900080EDC82E87E0D82EE12CF12C0E94D300EB
:1006A000681979098A099B09683E7340810591059B
:1006B000A8F3F1E0CF1AD108E108F10828EE820E84
:1006C00023E0921EA11CB11CC114D104E104F10469
:1006D00029F7A1960FB6F894DEBF0FBECDBFDF910C
:1006E000CF911F910F91FF90EF90DF90CF90BF902F
:1006F000AF909F908F9008951F920F920FB60F9218
:1007000011242F933F938F939F93AF93BF93809127
:10071000530190915401A0915501B091560130912F
:10072000520123E0230F2D3758F50196A11DB11D6D
:10073000209352018093530190935401A09355014B
:10074000B09356018091570190915801A0915901A1
:10075000B0915A010196A11DB11D8093570190934C
:100760005801A0935901B0935A01BF91AF919F9145
:100770008F913F912F910F900FBE0F901F90189562
:1007800026E8230F0296A11DB11DD2CF1F920F9212
:100790000FB60F9211242F933F934F935F936F9354
:1007A0007F938F939F93AF93BF93EF93FF938BE5CB
:1007B00091E00E947601FF91EF91BF91AF919F91DF
:1007C0008F917F916F915F914F913F912F910F90FA
:1007D0000FBE0F901F9018951F920F920FB60F9299
:1007E00011242F938F939F93EF93FF93E0916B01CD
:1007F000F0916C018081E0917101F091720182FDB4
:100800001BC09081809174018F5F8F73209175015F
:10081000821741F0E0917401F0E0E55AFE4F958FA8
:1008200080937401FF91EF919F918F912F910F9081
:100830000FBE0F901F9018958081F4CF1F920F92DA
:100840000FB60F9211242F933F934F935F936F93A3
:100850007F938F939F93AF93BF93CF93DF93EF9348
:10086000FF9380912C01C0912D01D0E087FF24C01F
:10087000109285001092840080912C018F5F8093EC
:100880002C0180912C01082E000C990B8C179D07D0
:1008900024F480912C018C30C4F1809184009091DB
:1008A0008500049680349C4908F47AC080918400C5
:1008B00090918500049676C080912C01082E000C42
:1008C000990B8C179D07C4F6E0912C018E2FEE0F2B
:1008D000990BFC01EE0FFF1FE80FF91FE25DFE4FC1
:1008E000808186FFC9CFE0912C018E2FEE0F990BEE
:1008F000FC01EE0FFF1FE80FF91FE25DFE4F808144
:1009000060E08F730E948700B7CF20918400309100
:100910008500E0912C018E2FEE0F990BFC01EE0F5C
:10092000FF1FE80FF91FE25DFE4F81819281820F68
:10093000931F9093890080938800E0912C018E2F63
:10094000EE0F990BFC01EE0FFF1FE80FF91FE25DA0
:10095000FE4F808186FF11C0E0912C018E2FEE0F9B
:10096000990BFC01EE0FFF1FE80FF91FE25DFE4F30
:10097000808161E08F730E948700FF91EF91DF918A
:10098000CF91BF91AF919F918F917F916F915F9127
:100990004F913F912F910F900FBE0F901F90189580
:1009A00080E49CE990938900809388008FEF809386
:1009B0002C01E3CFFC0190912D019C3098F481E053
:1009C000890F80932D019083892F90E0FC01EE0F19
:1009D000FF1FE80FF91FE25DFE4F88EB9BE092835B
:1009E000818308958FEF80830895EBE5F1E0138212
:1009F000128288EE93E0A0E0B0E084839583A68322
:100A0000B78384E091E09183808385EC90E09587C3
:100A1000848784EC90E09787868780EC90E0918BC8
:100A2000808B81EC90E0938B828B82EC90E0958BB5
:100A3000848B86EC90E0978B868B118E128E138EB2
:100A4000148E84E092E00E94DA0481E092E00E9439
:100A5000DA048EEF91E00E94DA048BEF91E00E94BD
:100A6000DA0488EF91E00C94DA04789484B582601B
:100A700084BD84B5816084BD85B5826085BD85B542
:100A8000816085BD80916E00816080936E001092C0
:100A9000810080918100826080938100809181003B
:100AA00081608093810080918000816080938000CC
:100AB0008091B10084608093B1008091B00081602A
:100AC0008093B00080917A00846080937A00809156
:100AD0007A00826080937A0080917A0081608093AE
:100AE0007A0080917A00806880937A001092C10029
:100AF00063E170E084E092E00E9468026FE070E0E1
:100B000081E092E00E94680261E170E08EEF91E086
:100B10000E94680260E170E08BEF91E00E94680241
:100B20006CE070E088EF91E00E946802E0916B0158
:100B3000F0916C0182E08083E0916701F09168019F
:100B40001082E0916901F0916A018FEC808310922C
:100B50007301E0916F01F091700186E08083E09174
:100B60006D01F0916E01808180618083E0916D0163
:100B7000F0916E01808188608083E0916D01F09139
:100B80006E01808180688083E0916D01F0916E013B
:100B900080818F7D808381E291E00E94E002C0E04D
:100BA000D0E090E080E00E94ED028DE290E00E94B3
:100BB000ED028AE590E00E94ED02209791F30E94F9
:100BC0006201882371F30E940000EBCF052E97FB92
:100BD0001EF400940E94FD0557FD07D00E941806E0
:100BE00007FC03D04EF40C94FD05509540953095CC
:100BF00021953F4F4F4F5F4F089590958095709589
:100C000061957F4F8F4F9F4F08950E943A06A59F91
:100C1000900DB49F900DA49F800D911D11240895F7
:100C2000B7FF0C9405060E940506821B930B0895DE
:100C3000A1E21A2EAA1BBB1BFD010DC0AA1FBB1FE0
:100C4000EE1FFF1FA217B307E407F50720F0A21B52
:100C5000B30BE40BF50B661F771F881F991F1A94BF
:100C600069F760957095809590959B01AC01BD01E9
:100C7000CF010895A29FB001B39FC001A39F700D43
:100C8000811D1124911DB29F700D811D1124911D94
:100C90000895991B79E004C0991F961708F0961BD8
:100CA000881F7A95C9F780950895EE0FFF1F05906C
:0A0CB000F491E02D0994F894FFCFB1
:100CBA00000000009801F8002501E5015601340101
:100CCA004801476F20746F206E756D3A20000D0A37
:0C0CDA0000446F6E652053657475700057
:00000001FF
